:0400000080312C28F7
:100008007E14803120007F08B1000B1F27282100B3
:10001800121C15282000121C15288331B7238031A3
:1000280027282100111D1F282000111D1F28843199
:100038003A24803127282100111C27282000111C70
:10004800272884311D2420003108FF007E10090074
:1000580080312E283C3084000030850015308431F2
:100068002E247E1020008231A72A2500190820009E
:10007800AE00250018082000AD000E1DAB28043086
:1000880025009A008331522380317008703EFB00AE
:100098001730713DFC008331FC238031210011159C
:1000A80020004C09A4004D09A500A40A0319A50ABB
:1000B8002D082407CC002E08253DCD002E08CB00A6
:1000C8002D08CA0003303D06031D08003C03031D2C
:1000D800080005304D02DD3003194C0203180800F2
:1000E8003F08A4002408AA0040302A020318080088
:1000F8000310AA0C0310AA0C0310AA0C2A08403EED
:10010800860087014E090105A4002408A8004908B3
:100118004D02031D912848084C02031C97284E08DD
:10012800A4002408A8042808A4002A08403E860041
:100138008701240881000310CE0D4E08031DA62850
:10014800CE01CE0A0130A4002408BF0708000530FC
:1001580025009A002100111120004D08AC004C0820
:10016800AB002E08CD002D08CC004A08AD024B0884
:10017800AE3B02303C0203180800A9011A302C02D9
:10018800583003192B02031C00292B302C02E930AC
:1001980003192B02031800292C08A5002B08A4001A
:1001A800A536A40CA536A40CA536A40C2408C800B2
:1001B8002508C9000D302E022C3003192D02031C0E
:1001C800EE2815302E02F53003192D020318EE28FB
:1001D800A901A90A06302E02963003192D02031C24
:1001E80000290A302E02FB3003192D0203180029BA
:1001F8001130A4002408A90009302C02F630031994
:100208002B02031C3E2910302C029B3003192B02B1
:1002180003183E292C08A5002B08A400A536A40C19
:10022800A536A40C2408C8002508C90004302E02ED
:10023800FB3003192D02031C2C2908302E024E30E6
:1002480003192D0203182C290230A4002408A90040
:1002580009302E02F63003192D02031C3E291030F6
:100268002E029B3003192D0203183E291230A400D8
:100278002408A90007302C02083003192B02031C9C
:1002880074290B302C02B93003192B020318742976
:100298002C08A5002B08A400A435A50D2B082407BD
:1002A800A6002C08253DA700A736A60CA736A60C45
:1002B800A736A60C2608C8002708C90001302E0258
:1002C800C23003192D02031C742902302E02EF30AC
:1002D80003192D02031874290330A4002408A90067
:1002E8002908031983292908A4002408BD00BF018F
:1002F800CE01CE0A0130A4002408BC0008003C034B
:10030800031D0F2A3D08A4002408A900033029066C
:10031800031D952903302E02853003192D02031C75
:1003280008003F08A4002408AA0040302A02031845
:1003380008000310AA0C0310AA0C0310AA0C2A0820
:10034800403E860087014E090105A4002408A80044
:100358002903031DDD2903302C024C3003192B021D
:100368000318DD2908302E02C93003192D0203189D
:10037800DD2949082E02031DC32948082D02031C44
:10038800C9294E08A4002408A8042808A4002A089B
:10039800403E86008701240881000310CE0D4E08D8
:1003A800031DD829CE01CE0A0130A4002408BF07B6
:1003B800080002302906031D0F2A02302C027E3065
:1003C80003192B0203180F2A06302E02A530031931
:1003D8002D0203180F2A49082E02031DF529480883
:1003E8002D02031CFB294E08A4002408A804280891
:1003F800A4002A08403E86008701240881000310D3
:10040800CE0D4E08031D0A2ACE01CE0A0130A400E3
:100418002408BF070800BC01BD0108002000B40083
:100428003408B3003308B50022008E148C160C165D
:100438008E168E150E16982A22008E104D2A22002E
:100448008C124D2A22008E124D2A22000C124D2A9F
:1004580022008E114D2A22000E124D2AFF30200054
:10046800B3003308B5004D2A20003508023A0319B5
:100478002C2A063A03192F2A033A0319262A0F3A77
:100488000319292A033A0319202A063A0319232AA9
:10049800322A4E302000B300EB30890B512AB30BBF
:1004A800512AA42A22008E108E2A22008C128E2A0B
:1004B80022008E128E2A22000C128E2A642A672AA3
:1004C80022000E128E2A22008E118E2AFF30200062
:1004D800B3003308B5008E2A20003508103A0319F6
:1004E800622A013A0319632A283A0319562A033A59
:1004F8000319592A013A03195F2A073A03195C2A92
:10050800013A0319622AAF3A0319642A013A031916
:10051800672A6A2A1A302000B300F830890B922A19
:10052800B30B922A0000A42A20003208013A0319CA
:10053800382A033A0319702A013A0319A42AA42A6B
:10054800200035080800303025008C003A308E0035
:100558008331CC2382318B1722008E148C160C1613
:100568008E168E150E168331A12382310B17FF309C
:100578002000B6003608BB00B901BA01232B3908A0
:10058800B90AB60065303602031C232B22008E14EC
:100598008C160C168E168E150E16FF302000B6001F
:1005A8003608BB00BA01B901232BB90103303D0657
:1005B800031D072B14303E02031CEF2A2D30410681
:1005C800031DEF2A0F304206031DEF2A40083B06A1
:1005D8000319032BF72A0C303E02031C072B20308B
:1005E8004106031D072B0230B6003608B20040084A
:1005F8008231122282312000B7003708BB00023056
:10060800B6003608BA003D03031D1A2B20303E02FF
:10061800031C1A2BB201B20A42088231122282311B
:100628002000B6003608BB00BA01BA0A03303A0601
:100638000319222B3E08031D222B3D08BC013C0850
:10064800B6003608B8003808003A0319C32A013A38
:100658000319232B033A0319D92A232B232B200010
:100668003C08F0007008F100210011110430250049
:100678009A0004309A00210012147103031D4E2BB6
:1006880020003F08F0007008BE000230F00070083B
:10069800BC0008002000BC01BD01080020001608AD
:1006A800F2007208FA001708F2007208F9007A08D6
:1006B800F200F3017908F400F5017408F500F4017B
:1006C80072087404F70073087504F8007808F100DC
:1006D8007708F000080022008C018E010730210005
:1006E8008C0005308E0023008E0103308C0024001E
:1006F8008C018E0121009517303025008C003A308E
:100708008E003C001508E0391238950008002000DA
:100718009901970196011708D4001608D300111003
:100728002100111443302000B2000430B30084319A
:1007380034242130200098000800200018100030D0
:10074800B200B3008331DE232000181421001114F5
:100758002000BC01BD01043025009A0004309A0035
:100768002100121408002000121025001808FD00AE
:100778007D082000AF0025001908FD007D08200035
:10078800B0003008A3002F08A200803139200800EB
:1007980083316F23833184312624833184313F248C
:1007A80083318431132483318431092483318331A3
:1007B8008B2308002000181DE82B18103308970019
:1007C800320896001814080033089700320896007B
:1007D80008002000181DF72B1810710897007008E2
:1007E8009600181408007108970070089600080011
:1007F8007C082000A1007B08A000200825009100AB
:1008080020002108250092000800043025009A00E5
:1008180098019901200012102100121408000830D4
:10082800250093009101920120001111210011155A
:100838000800200011105408F1005308F00083311B
:10084800ED2308007830210099009A0198012200D0
:1008580096010800640080010131890B2F2C0034B7
:1008680020003308D2003208D100080020001111FE
:100878008331332308001630210097000800080050
:020000040001F9
:04000E00A4FFFFDE6E
:00000001FF
